{
  "_format": "hh-sol-artifact-1",
  "contractName": "LibTest",
  "sourceName": "contracts/lib.sol",
  "abi": [
    {
      "inputs": [],
      "name": "testFunc",
      "outputs": [
        {
          "internalType": "bool",
          "name": "",
          "type": "bool"
        }
      ],
      "stateMutability": "view",
      "type": "function"
    }
  ],
  "bytecode": "0x60c3610052600b82828239805160001a607314610045577f4e487b7100000000000000000000000000000000000000000000000000000000600052600060045260246000fd5b30600052607381538281f3fe730000000000000000000000000000000000000000301460806040526004361060335760003560e01c8063037a417c146038575b600080fd5b603e6052565b604051604991906074565b60405180910390f35b60006001905090565b60008115159050919050565b606e81605b565b82525050565b6000602082019050608760008301846067565b9291505056fea2646970667358221220ce73c50380bf59e839f078e7e43813314a5726de0f2f84213d1f0ebb0ed356e264736f6c634300080f0033",
  "linkReferences": {},
  "deployedLinkReferences": {}
}